:10000000C01D0020B5080000E9450000A10800005F
:10001000A1080000A1080000A108000000000000E5
:10002000000000000000000000000000690A00005D
:10003000A108000000000000350A0000A10800002F
:10004000F50B0000F50B0000F50B0000F50B0000B0
:10005000F50B0000F50B0000F50B0000F50B0000A0
:10006000F50B0000F50B0000F50B0000F50B000090
:10007000F50B0000F50B0000F50B0000F50B000080
:10008000F50B0000F50B0000F50B0000F50B000070
:10009000F50B0000F50B0000F50B0000F50B000060
:1000A000F50B0000F50B0000F50B0000F50B000050
:1000B000F50B0000F50B0000F50B0000F50B000040
:1000C000F50B0000F50B0000F50B0000F50B000030
:1000D000F50B0000F50B0000F50B0000F50B000020
:1000E000F50B0000F50B0000F50B0000F50B000010
:1000F000F50B0000F50B0000F50B0000F50B000000
:10010000014B1B68184700BF0000002030B585B0C8
:1001100004460D4610220021684604F08CFE02239E
:100120008DF802302A46044B01932146684603F0BD
:10013000A1FE05B030BD00BF01010000014B1860F9
:10014000704700BF0000002080B505460E461746E8
:10015000984603F0B9FA034604F076FEDFF81890EB
:10016000044649F80030424630463946A84754F81C
:10017000090000F00DFC00BF080000002DE9F04769
:10018000058B04462807904611D4022905F007057F
:1001900040F0CC80204604F044F978B10138218B3E
:1001A000042811D8DFE800F0C2106D859500012900
:1001B0000CBF45F0100545F02005258388F3118814
:1001C000BFF36F8FBDE8F08701F0070AAA4500F082
:1001D000A5800027B9463E46A368002B00F0BC80EE
:1001E00041F00801218388F31188BFF36F8FA16864
:1001F000002900F0BA800D68002900F0B680D1F81F
:100200000480334652462046C047002D76D02B68E6
:1002100029461D46F0E701F007035A1F012A1BD8A3
:10022000002221F00701062B276889B2C4E90022C9
:1002300009D13B4603E0628B013262831B68002BCD
:10024000F9D141F002012183204604F0EAF80028A8
:100250007AD041F0200176E0042B0AD121F0070189
:1002600089B22183204604F0DCF810B141F020016E
:100270002183218B01F0070AAA454FD00027B946F8
:10028000AAE7236921F0070141F00601062DD3F802
:10029000009021832DD1B9F1000F3FD041F008012A
:1002A000218388F31188BFF36F8F3A492046C847EE
:1002B00029E021F00701236941F0040189B2042DEE
:1002C000D3F804902183E6D000273E464FF0040A7D
:1002D00082E721F00701236941F0050189B2052D6C
:1002E000D3F808902183D6D000273E464FF0050A68
:1002F00072E700273E464FF0060A6DE72B4687E778
:10030000B9F1000FD1D1EFF31188202383F31288C4
:10031000BFF36F8F238B23F008032383258BEA061B
:100320002ED525F01003238305F007056669218B80
:10033000002EBFF670AF00232768C4E9003321F018
:10034000070141F001012183218B01F0070AAA4531
:100350004FF000097FF440AF002F9CD041F008011E
:10036000218388F31188BFF36F8F002FC8D03D68B9
:10037000394633465246204604F07FF82F46F4E7CC
:10038000AB067FF51BAF25F02003238305F007059F
:1003900000E700BFA7440000014B03600020704746
:1003A0009850000008B5044804F02EF8BDE8084055
:1003B000024804F029B800BF5C52000091520000CE
:1003C000014803F0AFBB00BF9850000038B50446A9
:1003D00018B90F4B0F485B6898476168B1F5683FE3
:1003E00010D0B1F5680F0DD00B4DA9420AD011F411
:1003F0006861206807D00146084804F086FB0023A6
:100400002360656038BD142204F015FDF9E700BFD4
:10041000E0000020BF5200002C5F5CA958080020BB
:1004200008B520B34368B3F5683F10D101220368D3
:10043000BFF35B8F53E8001F002903D143E800207E
:100440000028F7D1BFF35B8F0DD1002008BD094A0A
:1004500093420AD000684FF0FF324FF0FF3302F0B2
:1004600049FD0028F1D00448F0E70448EEE76FF4B6
:10047000E040EBE72C5F5CA9E98FFFFFEA8FFFFF0D
:1004800008B5D8B14368B3F5683F10D100220368BE
:10049000BFF35B8F53E8001F012903D143E800201D
:1004A0000028F7D1BFF35B8F0BD1002008BD074AAE
:1004B000934208D0006802F095FDF6E76FF4E04043
:1004C000F4E70348F2E70348F0E700BF2C5F5CA9BC
:1004D000E98FFFFFEA8FFFFF10B5044618B91D4BE7
:1004E0001D485B6898476368B3F5683F2FD0B3F544
:1004F000680F2CD0194A934219D1236803BB1848BE
:100500004FF0FF324FF0FF33214602F0C5FC08B92F
:1005100023681BB90F4B13485B6898472068142267
:10052000002104F088FC4FF46863636008E0B3F5D1
:10053000683F0DD83A2B03D040F6BA629342DED121
:10054000206804F01AFB636843F03A03636010BD4F
:10055000054AF3E7E0000020BF5200002C5F5CA9D1
:1005600058080020E55200003A00003A08B5064954
:1005700006484023142204F0BAFABDE808400449B2
:10058000044803F041BB00BF580300205808002076
:10059000A0500000B450000030BFFFF7FDBF00BF07
:1005A0002DE9F0410B4EDFF8308006EB0807CC1B3D
:1005B000054632460949204604F02FFCA019424660
:1005C0000021083C04F037FC2C6707F10800BDE867
:1005D000F08100BF00000000040000008450000013
:1005E000074A936893F90E10002907DB526993427A
:1005F0001FBF044A536843F080535360704700BFE5
:10060000D009002000ED00E070B5264B15469A6A2F
:1006100012F0100F9A6A14BF1124102412F0080F60
:100620009A6A18BF1224920706460AD5586B9A6A2E
:10063000140634D519B19A6A22F080029A62132402
:1006400001E06FF01500174B9A6A12F0010F9A6AD9
:1006500018BF142412F0200F9A6A18BF1524D2066E
:1006600002D49B6A9B070AD50E4B5B68190506D519
:10067000314600F075FA10B180F309880224094B65
:100680009A6A920642BF5A6A22F400525A629A6AE1
:1006900042F0FF029A6200232B70204670BD6FF07B
:1006A0001500CCE700ED00E0134B9A6A12F0007FD2
:1006B0009A6A14BF1E201D2012F0807F9A6A18BF0C
:1006C0001F2012F4002F9A6A18BF212012F4802FE5
:1006D0009A6A18BF222012F4003F9A6A18BF23209A
:1006E00012F4803F9A6A6FEA02426FEA12429A62FB
:1006F00018BF2420704700BF00ED00E010B5194B73
:100700000246986A9C6A10F4805F14BF1720162076
:1007100014F4006F9C6A18BF1820A40509D5986BC3
:10072000986A000404D51AB19A6A22F400429A62C7
:1007300019200C4B9A6A12F4806F9A6A18BF1A201B
:10074000D2050CD49B6A13F4005F18BF1C20054A25
:10075000936A43F47F43936200230B7010BD1B2008
:10076000F5E700BF00ED00E0F0B5484B5B688BB0EB
:100770000446C3F30803002585F31188BFF36F8F88
:1007800002F07F40B0F17F4F11D102F00C00082839
:100790000DD010074CBF0C4601250022033B8DF8FD
:1007A0000720032B05D8DFE803F0246367602C469D
:1007B000F3E700239DF80720CAB902AE04F1200731
:1007C00020686168324603C20834BC421646F7D13D
:1007D000099A002D54D0C2F3080121B96FEA5222C0
:1007E0006FEA4222099202A9184603F0F3FE0BB009
:1007F000F0BD264BDA6A9107DBD4DA6A002AD8DB2F
:10080000DA6A5200D5D55A69A16942F480725A61F8
:10081000BFF34F8FBFF36F8F5A6931F8021C22F478
:1008200080725A61BFF34F8FBFF36F8F4DF6027224
:1008300091420AD09A6AD2B24AB10DF1070201215F
:100840002046FFF7E1FE0346B4E72368B2E79A6A61
:1008500012F47F4F05D00DF107010120FFF74EFF85
:10086000F1E79B6AB3F5803FA3D3FFF71DFFEAE7EB
:100870000DF107020021E3E70DF107010020EDE78C
:1008800022F4FF7222F00102ACE700BF00ED00E0AD
:10089000024A536943F010035361704700ED00E0D2
:1008A000EFF30880EFF3098101B57246FFF75CFFB3
:1008B00001BD00BF002080F31488BFF36F8F01F0EB
:1008C0003BFB00200D490860BFF34F8F0C4880F3BD
:1008D000088800F02BF8202080F3118809484FF495
:1008E0000461401880F30988EFF314800221084363
:1008F00080F31488BFF36F8F00F0FAF894ED00E0F6
:10090000C01D0020001000200749D1F890200023CE
:10091000C2F307221846934200DB7047C1F89830B3
:10092000C1F8A0000133F6E700ED00E008B572B6AB
:10093000002383F31388FFF7E7FF144B4FF0FF32D8
:10094000C3F88020C3F88420C3F88820C3F88C2023
:10095000C3F89020C3F89420C3F89820C3F89C20D3
:10096000C3F88021C3F88421C3F88821C3F88C21FF
:10097000C3F89021C3F89421C3F89821C3F89C21AF
:1009800062B6BFF34F8FBFF36F8F08BD00E100E089
:10099000084B9B6883420BD1EFF3058343B1064BB1
:1009A0005A6842F080525A605A6A22F400425A62EF
:1009B00004F095B9D009002000ED00E0094A9368E1
:1009C0006FF00A019967084958674B6843F08053F4
:1009D0004B60002383F31188BFF36F8F9368986F88
:1009E000704700BFD009002000ED00E010B50446BC
:1009F000EFF31183202383F31288BFF36F8F0A4B29
:100A000058699860094B4FF000625A60084B026FBA
:100A10001A600022436F426783F31188BFF36F8F20
:100A200000F006F9204610BDD009002000ED00E0DE
:100A3000740800200B498A684FF030001044EFF32F
:100A4000098C80E8F01F74467046FFF7CFFFA6467A
:100A500004498A6802F1300090E8F01F8CF309889D
:100A600070470000D00900201EF0040F0CBFEFF308
:100A70000880EFF30980816911F8021C0229FFD078
:100A800001B503F0ADFD01BD40B2002807DB044A0B
:100A90004109012300F01F00834042F821307047D4
:100AA00000E100E0054B420900F01F0053F822204E
:100AB000012303FA00F01040704700BF00E100E09E
:100AC00040B20028A8BF00F1604001F10101B8BFA9
:100AD000064B4FEA4111ACBF00F5614000F00F003A
:100AE000C9B2B4BF195480F80013704714ED00E088
:100AF0000B4A08B50B4B22F07F029A60BFF34F8F71
:100B0000BFF36F8FD3F8882022F47002C3F88820D7
:100B100002F0FEF802F064FE00F060F802F03CF92A
:100B20000000000000ED00E042F8203C009B42F88D
:100B30001C3C0A49019B42F8183C029B42F8143CB9
:100B400021F001014FF0807342F8043C42F8081C88
:100B50000023203A02654367704700BF4901000047
:100B6000094A0346906870B113F1160F006E05D064
:100B7000A0F140029A4205D8834203D2814228BFA5
:100B80000020704700207047D009002008B51546A6
:100B90000B4A0C4B9060026F1A600E4600F048F84A
:100BA0002C4686F309884FF00000074B98472046F3
:100BB0004FF000014FF000024FF00003034C2047BC
:100BC000D009002074080020FF4500004901000002
:100BD000014B10221A61704700ED00E00448002329
:100BE0002021C2180133302B82F80013F9D170474D
:100BF00000E100E008B5EFF30583064A103B02EB85
:100C0000C30152F8330049688847BDE80840FFF740
:100C1000E7BC00BF044F0000024B034A0348012118
:100C200000F076B80000042000000020C45000004E
:100C3000026E054B403A1A60044A4021C3E9011292
:100C40001846012100F06EB87808002000000B154E
:100C5000084AC2F898000B6823F01F03034343F0CF
:100C60001003C2F89C308B6843F00103C2F8A03037
:100C7000704700BF00ED00E02DE9F043DFF8608031
:100C800085B00E461F4604464FF00009B14523DAF1
:100C90006068D8B13FB1411E08421BD11F2819D945
:100CA0002368194216D12368019303F0CBFCA36893
:100CB00003430393D8F89050C5F30725D0B2013D04
:100CC000A84207D801A9FFF7C3FF421C09F1010997
:100CD0000C34DBE76FF01502104605B0BDE8F08379
:100CE00000ED00E0044B0522C3F89420BFF34F8FC2
:100CF000BFF36F8F704700BF00ED00E0BFF35F8F61
:100D0000024B0022C3F89420704700BF00ED00E0C2
:100D100010B5034C01232278FFF7AEFF207010BD01
:100D2000D80B002008B50B4A00231278FFF7A4FF68
:100D300010F1160F07D0084A0021D2F89030C3F303
:100D40000723984200DB08BDC2F89800C2F8A01043
:100D50000130F2E7D80B002000ED00E02DE9F04370
:100D6000534B544CD3F890302568C3F307239D426E
:100D700085B000F29A80FFF7C1FF00200C26854263
:100D80001AD14D4C4D4F25706846FFF705FBDFF833
:100D90002081DFF82C9106460025AE4213D123783E
:100DA00043490020D1F89020C2F30722934276DB1A
:100DB000FFF798FF002042E0616806FB0011FFF793
:100DC00047FF0130DBE7009800EB05114FEA051CF7
:100DD000CB683B40B3F5000F48D00AD8B3F5001FED
:100DE00030D0B3F5800F36D0B3F5801F10D0013569
:100DF000D3E7B3F1807F42D0B3F1007FF7D150F851
:100E00000C3088684A6803F01DFC40F4802009E03B
:100E100050F80C3088684A6803F014FC40F08850A1
:100E200040F43020CDE901230390D8F890302078A9
:100E3000C3F30723013B98422AD96FF0150005B090
:100E4000BDE8F08350F80C3088684A6803F0FAFB7C
:100E500040EA0900E6E750F80C3088684A6803F079
:100E6000F1FB40F0E06040F40030DBE750F80C307C
:100E700088684A6803F0E6FB40F08270D2E750F8D9
:100E80000C3088684A6803F0DDFB40F08870C9E7E1
:100E900001A9FFF7DDFE237801332370A7E7C1F82E
:100EA0009830C1F8A00001337CE74FF0FF30C6E76F
:100EB00000ED00E0D0500000D80B00200000F0FF53
:100EC0000000081108B5024B1B689847002008BDB8
:100ED00084080020034B044A1860937843F002030F
:100EE00093707047840800202400002008B506494C
:100EF000064821F00701C1F1005202F5802203F0FB
:100F000044FA002008BD00BF071E0020880800200A
:100F10000E4A0123C2F840354FF080424FF0805115
:100F2000C2F87835D1F83001082808D1D1F8341149
:100F3000052904D80648415C09B1C2F838364FF09B
:100F400080430122C3F880250020704700E0014063
:100F50002153000020B1034B800143F001031847E7
:100F6000704700BF90500000084B70B5C31A0D4683
:100F700007499B10044659430648402203F080FB72
:100F80002B4601462046BDE870401847A8080020BF
:100F9000B76DDBB6B44E000073B50C4C0C4A402361
:100FA000041B00930D460B460A49A41061430646F4
:100FB000094803F091FB011E05DA30462B4602B0CA
:100FC000BDE87040184702B070BD00BFA8080020FF
:100FD00043470000B76DDBB6B44E000010B5EFF329
:100FE0001184202383F31288BFF36F8F074A13689D
:100FF00023F00201DB07116002D4012003F0A1FC01
:1010000084F31188BFF36F8F10BD00BFF808002074
:10101000002270B5012104461046FFF751FD0F482C
:1010200001F014F90E4B984215D101F01FF9266911
:101030000C49304603F044FA00280BDB01253564E7
:101040002469084904F11C0003F03AFA002801DB86
:10105000E564002070BD6FF00400FBE76111000043
:101060000000AD0BF05000001FB500220123CDE9B8
:101070000223094ACDF800D06B46CDF804D003F026
:1010800059FB002805DB4FF480420023684602F03C
:1010900009F805B05DF804FB6147000030B4104B5F
:1010A0000C2202FB003301460020D3E90E52986364
:1010B000EFF31180202484F31288BFF36F8F1C6C30
:1010C00004F0C00444F002041C6480F31188BFF3F0
:1010D0006F8F1DB12B46034830BC184730BC70479A
:1010E000A8080020B44E000010B4EFF311822023B2
:1010F00083F31288BFF36F8F1748016841F0020431
:101100000460C80707D482F31188BFF36F8F0120F2
:1011100010BC01F0BDB84FF08041D1F80C04D1F8FB
:101120000C14C907EFD5EFF3118083F31288BFF3D6
:101130006F8F0A490B6C03F0C00343F002030B648A
:1011400080F31188BFF36F8F82F31188BFF36F8F25
:10115000002010BCFFF7A2BFF8080020A80800205C
:1011600010B1012804D07047034B1B6C5B0701D101
:10117000FFF794BF704700BFA80800202DE9F04199
:101180003849BFF35B8F0746012251E8003F41E831
:1011900000200028F9D1BFF35B8F33B932493348BF
:1011A0004B60CB608A6003F09EF97B1E012B2BD82D
:1011B000012F07D14FF08043D3F81C3403F0030311
:1011C000012B21D003F0E0FC0546F8B9284B1B7831
:1011D000E3B14FF080430222C3F808230646DFF84C
:1011E00094804FF08044D4F81824D4F81834D203F3
:1011F00015D503F00303012B01D0012F0FD155B3F7
:1012000086F31188BFF36F8FBDE8F081EFF311868D
:10121000202383F31288BFF36F8F0125DFE7ADB181
:10122000304603F000FAD4F81835002BDBD1D4F89F
:101230000421002AD7D0C4F80431D4F804310123A2
:10124000C4F81835C8F88031A360CCE7002121200C
:1012500002F01CFAE7E74FF080430222C3F80423B0
:10126000D2E700BFA408002094080020C408002092
:10127000EB0F002000E100E008B5074803F0EFFBAA
:1012800038B10648FFF726FE0448FEF757FF002056
:1012900008BD6FF01200FBE7F04E0000A112000045
:1012A0000A2838B5074D044604D1AB680D215B68A8
:1012B00028469847AB6803485B68E1B298472046E8
:1012C00038BD00BFF04E0000F0B54068057B01F06E
:1012D0001F0444EA4514056987B0002D64D0B2F5B7
:1012E000001F00F1100506D12146284603F0A9FB96
:1012F000002007B0F0BD01AE0027B2F5800F0197C6
:10130000776039D1B3F1007F14BF052304238DF832
:1013100004300023CDE904630393836823FA01F1C9
:1013200011F001011AD1B2F1A07F17D104F01F030F
:10133000620903F5E0732AD0012A3BD11F4A52F813
:101340002330DB070AD40DF1030632462146284636
:1013500001F07CFA1A4B98421CD0029603AA21464F
:10136000284601F035F9174B984220D10122214639
:10137000284601F0CFFABBE7B3F1C06F05D0B3F157
:10138000007F14BF01230223C1E70323BFE74FF00F
:10139000A042D4E73146284601F0B6FA094B9842FC
:1013A000DBD06FF00B00A4E76FF08500A1E76FF0D2
:1013B00015009EE751F82330FFDE00BF0003005008
:1013C0000400AD0B0000AD0B38B545682B69B3B117
:1013D0001035284601F088FA044680B901462846AF
:1013E00001F04EFA084B98420BD108492246284694
:1013F00001F026FA224605210620FFF761FB0020B6
:1014000038BD6FF00400FBE70000AD0B11140000C5
:10141000420970B5034602D0012A17D070BD0D4EA7
:10142000326951680029F9D003F01F0301250C68C7
:101430009D400029F2D08A682A4002D04B6830468D
:1014400098472CB1236821461C46F2E7024EE7E795
:101450002346F8E7DC4E0000C84E00002DE9F043BB
:10146000466840F20635D006337B87B002EA0505B0
:1014700054BFC2F34010032001F01F07B5F5837F6E
:10148000144647EA43178DF8030044D00FD8062DC1
:1014900018D007D8B5B1022D3FD06FF0150007B0B6
:1014A000BDE8F083B5F5807FF7D101250AE040F271
:1014B0000222954233D0B5F5407F32D0B5F5007F9A
:1014C000EBD1022522032ED5726801238B40C2F88E
:1014D0000835326992BB07F01F037F092BD0012F1B
:1014E00079D13F4A02EB830284F48033D2F80017AB
:1014F000C3F30043C4F3404444EA430421F4E161EC
:1015000044EA800421F0070144EA05230B43C2F8B2
:1015100000370020C3E70725D4E70425D2E70525D7
:10152000D0E70325CEE7630341BF012372688B40F8
:10153000C2F80C35CDE74FF0A042D3E710360DF1DD
:1015400002023946304601F081F914F4403F8046EA
:101550000CD13946304603F072FA224B9845D8D167
:101560009DF80210304601F0C9F9D2E701AB4FF007
:10157000000903AA39463046CDE90439CDE901997D
:10158000CDF80C9001F024F8164B984285D114F454
:10159000003315D09DF803308DF80E3084F480347C
:1015A000C4F300444B4603AA394630468DF80C502C
:1015B0008DF80D4001F0C6F80A4B9842CDD06CE78B
:1015C000CDE9043303AA0DF10303394630460393F2
:1015D00000F0FEFFF0E703F5E07352F82330FFDE82
:1015E000000300500000AD0B036803F01F025B090D
:1015F000026004D0012B034818BF002070474FF051
:10160000A0407047000300502DE9F04FDFF894919F
:10161000DFF894A185B01546834600EB810140F2C6
:10162000FF18594503D1002005B0BDE8F08FDBF865
:1016300000305E04C3F3C322C3F3080400F1AC809E
:101640005B0C19F80270444508BF4FF0FF34222BA1
:1016500000F2A580DFE803F012191F22252B22A338
:10166000A3A3A33B68A3A3A3A3A3A3A3A3A36B8147
:101670008487A3A3A38A9194979A9D00C5F80C45EB
:10168000601C5ED10BF1040BCBE7C5F81445621C5E
:10169000F8D000265FE0C5F80845F1E7C5F8104529
:1016A000F5E7631CC5F80845ECD0002604E0661C8D
:1016B000C5F80C45E6D0012603A80394FFF794FF74
:1016C000039B012202FA03F3C0F80C3508E0C5F8C9
:1016D0000845002FDBD1631CD4D0002632460627F4
:1016E000DBF80030019303F40040002818BF00220B
:1016F00003A8009218BF01260394FFF775FF039C0F
:10170000019B009A00EB8400C3F3412CD0F8004702
:101710003B0243EA8C03134304EA0A04234343EAEB
:101720004603C0F80037ADE7C5F80C45D1E7C5F86A
:101730006045601CDBF80030A4D0C3F30043002BED
:10174000B9D003A80394FFF74FFF039B012606FAC5
:1017500003F3C0F808353246C2E7C5F86445E8E748
:10176000C5F86845E5E7C5F86C45E2E7C5F82445E6
:10177000621C87D000220126B2E7C5F828457FE722
:10178000C5F83045F4E7C5F83445F1E7C5F8384504
:10179000EEE7C5F83C4573E76FF0150044E76FF0DE
:1017A000850041E752530000F0F8FCFF2DE9F743B4
:1017B0000646002201210220FFF782F90220FFF7EE
:1017C00063F9776835693C684FF00008C4F8008514
:1017D0002E60D7F80C9001AA4146484603F018F84D
:1017E000002839DB019BD9F8002019791868FFF728
:1017F0000BFF002830DB6B7AD6F810C0012B03D02A
:10180000032B27D14FF01008AB7A032B22D1E97AB2
:1018100009B101291ED12A7A12B1022A1AD10E2247
:101820006B687068B3F5164F006800F0B28034D86A
:10183000B3F5165F00F0B0801AD8B3F5966F00F0DC
:10184000AD800CD8B3F5967F00F0AB80B3F5167F72
:1018500000F0AA806FF0850003B0BDE8F083B3F517
:10186000166F00F0A480B3F5965FF3D15C4B43E0B4
:10187000B3F5E14F00F09E8008D8B3F5615F00F04A
:101880009B80B3F5964FE5D1564B35E047F6122EC7
:101890007345DFD14FF400032EE0B3F5613F00F054
:1018A0008D8015D8B3F5963F00F08B800AD84DF6A1
:1018B000C02E734500F08780B3F5614FCAD14FF455
:1018C0006B0319E0B3F5E13FC4D14FF0EB7313E0C4
:1018D000B3F5612F7AD009D8DFF80CE1734578D0E1
:1018E000B3F5E12FB6D14FF0E86305E0DFF8FCE097
:1018F0007345AFD14FF08053C0F82435736841EA87
:1019000008011B680A43C3F86C25D5E901010CF1F5
:10191000040383E803007B68990712D505F11800DA
:1019200001F02EF9324B984256D1287E04F10C0278
:1019300004F5907102F0FBFF2B7E0120984000F02F
:101940001DFC0823C4F800353B7A53B9C4F81031A4
:10195000D4F810316B69C4F834350123C4F8383534
:1019600023607B689A075CBF4FF48073C4F804332C
:101970007B68DB0644BF4FF48003C4F804332B6953
:10198000C4F8443500200123C4F84805A360E3608F
:1019900062E74FF41D03AFE7164BADE74FF49E230C
:1019A000AAE74FF4A033A7E74FF41C33A4E74FF4A2
:1019B0001D23A1E7104B9FE7104B9DE74FF06C7381
:1019C0009AE70F4B98E74FF4650395E74FF0706384
:1019D00092E74FF080638FE76FF004003CE700BFB1
:1019E00000B0130000A04E0090D0030040420F0052
:1019F0000000AD0B0050270000C0750000F03A0059
:101A000000903A012DE9F041044607690D4603F0C4
:101A1000BBF84FF02008B0B92C4B1B789BB1642663
:101A2000606802F023FFF0B9012002F07EFF013E62
:101A3000F6D10021212001F029FEF0E786F311887C
:101A4000BFF36F8FF5E7EFF31186314688F3128805
:101A5000BFF36F8F606802F009FF80B986F31188C9
:101A6000BFF36F8FEFE7EFF31186314688F31288EB
:101A7000BFF36F8F606802F0F9FE0028DED03B698B
:101A80001D70626838691368C3F844050120C3F803
:101A900048050020C3F82001D3F82051C3F85801AD
:101AA0005268D3F85801D20608D562681268082037
:101AB000C2F800054FF48002C3F8042301229A60A3
:101AC00081F31188BFF36F8FBDE8F081EB0F002029
:101AD00070B5012383400E4ABFF35B8FDC4352E8AD
:101AE000001F01EA040542E80056002EF7D1BFF3BB
:101AF0005B8F4FF4803282400648C0F80823BFF362
:101B00005F8FBFF36F8F0B4214BF0120002070BDA9
:101B1000180900200010014070B40E49D1E90034CA
:101B2000D01AC31844F1000422F07F46C1E9003402
:101B3000A6F50013B3F5400F09D2074B1B681A0A2C
:101B40001B069C19054B42F10005C3E9004570BC1A
:101B500001F020BFA80100201C090020B0010020D6
:101B600011B3BFF35B8F0123104A834052E800CFCB
:101B70004CEA030C42E800C10029F7D1BFF35B8FA8
:101B80000B4A4FF480338340C2F80433094BBFF350
:101B90005B8F1B68BFF35B8FC340DB0742BF064B05
:101BA0004FF40032C3F80021704700BF180900202D
:101BB000001001401409002000E100E00D4B1868FE
:101BC000010A0006BFF35F8F0B4BD3F804351818DA
:101BD00041F10001B3F5801F0AD2084BD3E900237D
:101BE000904271EB030303D210F1807041F10001C8
:101BF000704700BF1C09002000100140B001002008
:101C00002DE9F04F85B016461F469DF840A00446CA
:101C1000FFF75EFF0190FFF7D1FFB04271EB0703C2
:101C200054D23E4B301A67EB0101984271F100012A
:101C30004FD23B4B03EB0413D3E902239F4208BF6F
:101C400096425ED037494FF4803804F1500508FAC7
:101C500004F8AD00C1F848832046ADB202F04DFE55
:101C600026F07F4B05F1804504F5A87305F588350E
:101C7000DC464FF003090293029A2CF07F4341F8AF
:101C80002230C1F84483D1F80435274A6FF00200AE
:101C9000C01A604420F07F40904232D9286868B171
:101CA000D1F804350393A3EB0B0020F07F40B0F58F
:101CB000000F26D9204602F020FE039BBAF1000F48
:101CC00007D109EB030C09F10109D5E7BAF1000FBF
:101CD00009D06FF0150520460199FFF741FF28460E
:101CE00005B0BDE8F08F0123104ABFF35B8FA3401E
:101CF00052E8000F184342E800010029F8D1BFF371
:101D00005B8F07490E98230101EB0412C8500F9B0B
:101D10005360C2E902670025DDE700BF01008000D3
:101D20009801002000100140FDFF7F0014090020F1
:101D30007FB51C4C1C4BC4F80833C4F848331B4B0C
:101D400000254FF0FF304FF0FF31C4F80855C3E9CC
:101D500002014FF48033C4F80433154B02264FF4CC
:101D600000320121C4F804631120C3F880212A46FF
:101D7000FEF7A6FE1120FEF787FE0E4A0123A360A0
:101D8000236013600C4B0D4A0093CDE901550023ED
:101D90002846FFF735FF3046FFF7F0F9284604B034
:101DA00070BD00BF0010014003000F00980100202B
:101DB00000E100E018090020191B0000FFFF7F0070
:101DC0002DE9F7432F4CD4F8043399070BD5D4F8F9
:101DD000043143B12C4A0023C4F80431D4F804314F
:101DE000136801331360D4F80433DA0329D5BFF341
:101DF0005B8F264B53E8002F22F0010143E80010CF
:101E00000028F7D1BFF35B8FD30702D4D4F8403159
:101E1000BBB10025C4F84051D4F84031FFF7CEFEE5
:101E2000EFF31182202383F31288BFF36F8F184BD7
:101E3000D3E90267B042B94106D282F31188BFF3F9
:101E40006F8F03B0BDE8F0834FF0FF384FF0FF39DC
:101E5000C3E90289D3E900101D604FF48033C4F850
:101E60004833C4F84051D4F8403182F31188BFF3AD
:101E70006F8F0029E5D0009032463B4628468847C0
:101E8000DFE700BF001001401C09002014090020FA
:101E90009801002030B5431C124C85B005D0844217
:101EA000A8BF0446012CB8BF0124FFF787FE0E4BE4
:101EB0000C4DD3E90013401AB0F5000F10D22218D0
:101EC000AA4228BF2A4652184FF000000749009145
:101ED000CDE9010043F10003FFF792FE05B030BDEC
:101EE0002A46F0E7FFFF7F00A8010020191B000031
:101EF00008B5FFF763FE024B1B68C01A08BD00BFA0
:101F0000A80100204FF08053D3F83021082A06D1D1
:101F1000D3F83431052B02D8024AD05C7047002038
:101F2000704700BF6E530000024AD2F80034002B05
:101F3000FBD0704700E0014010B54FF08053D3F85C
:101F40003021082A4ED14FF080420021C2F80C11F6
:101F5000C2F81011C2F8381502F54042D3F8041443
:101F6000C2F82015D3F80814C2F82415D3F80C14BD
:101F7000C2F82815D3F81014C2F82C15D3F814148D
:101F8000C2F83015D3F81814C2F83415D3F81C145D
:101F9000C2F84015D3F82014C2F84415D3F824141D
:101FA000C2F84815D3F82814C2F84C15D3F82C14ED
:101FB000C2F85015D3F83014C2F85415D3F83414BD
:101FC000C2F86015D3F83814C2F86415D3F83C147D
:101FD000C2F86815D3F84014C2F86C15D3F844342D
:101FE000C2F87035FFF78EFF18B13A4B3A4AC3F882
:101FF0008C26FFF787FF18B1384BFB22C3F8182552
:10200000FFF780FF70B14FF080414FF08053D1F85F
:10201000E42ED3F8583222F00F0203F00F031343DB
:10202000C1F8E43EFFF76EFF20B12D4B4FF4007274
:10203000C3F840264FF08053D3F83031082B1AD123
:102040004FF08043D3F80024D20744BF6FF0010261
:10205000C3F800244FF08053D3F83431052B02D855
:10206000204AD35C3BB14FF01023D3F808224FF045
:102070008043C3F858254FF01023D3F80022002ADC
:1020800003DBD3F80432002B22DA174901234FF087
:102090001020C1F804351224FFF746FFC0F80042B3
:1020A000FFF742FFC0F80442FFF73EFF0023C1F8EC
:1020B0000435FFF739FFBFF34F8F0C490C4BCA684B
:1020C00002F4E0621343CB60BFF34F8F00BFFDE724
:1020D00010BD00BF005000404881030000F00040E8
:1020E000009002406853000000E0014000ED00E075
:1020F0000400FA0530B50468CCB1BFF35B8FB4FAC5
:1021000084F3C3F11F03DBB201229A4024EA0202E6
:1021100050E8005FA54204D140E8002CBCF1000F5C
:10212000F6D1BFF35B8FE6D102480B7030BD024899
:10213000FCE700BF0000AD0B0200AD0B10B503685B
:10214000CB40DB0714D401238B400268BFF35B8FC5
:1021500043EA020150E8004F944204D140E8001CD9
:10216000BCF1000FF6D1BFF35B8FEED1014810BD7B
:102170000148FCE70000AD0B0400AD0B014BC3F8B8
:102180000405704700F00140F7B5044618B1012876
:1021900023D003B0F0BD4FF080430222C3F80823E0
:1021A0000122DA60C3F80401D3F8043106460123A2
:1021B0008DF8073042F210754FF08047D4B1012CF2
:1021C000E7D1D7F80C3403F48033AEBB83B30120DE
:1021D00002F0ABFB013DF4D12AE04FF08043002236
:1021E000C3F808035860C3F80021D3F800310DF19B
:1021F0000706DCE7D7F8183403F480333EB9002B28
:10220000C7D0012002F091FB013DF3D1C1E7D7F81F
:10221000182402F003023260002BBAD09DF80700A8
:10222000012803D102F081FB013DC7D1012CB0D1BF
:10223000054B00225A71ACE7D7F80C2402F00102DA
:102240003270002BEAD1F3E720090020044B1A7901
:1022500022B9012218609A800248704702487047EC
:10226000200900200000AD0B0C00AD0B08B5074B9A
:102270001B682BB10020FEF715FC08B9FEF704FC23
:102280004FF080430022C3F8182508BD2009002024
:1022900010B510B1012843D010BD4FF08043D3F8E2
:1022A0001814D3F81824C80321D502F00303012B16
:1022B00004D013B10020FFF767FF00234FF08042E6
:1022C0000220C2F8183508224FF4827303F18043CC
:1022D0000021196002F180421C6801241460154A33
:1022E00012680AB34FF08043C3F80403D4E7D3F86D
:1022F0001424D107E1D5D3F81C249207DAD40D4A6F
:1023000012681AB10222C3F80423C5E7D3F80421E6
:10231000002AFBD00022C3F80421D3F80431BBE724
:1023200000224FF48073D1E71A68002AFCD01960AC
:102330001B68B1E72009002010B54FF08043D3F8A7
:1023400000216AB10022C3F80021D3F80021012244
:10235000C3F80823114B587910B95A711B68984774
:102360004FF08043D3F8042172B10022C3F8042156
:10237000D3F80421D3F81824D3F81824920704D1F1
:102380000122C3F818259A6010BD0222C3F8082361
:10239000024BBDE810401B680120184720090020AF
:1023A000036803F01F025B09026004D0012B03489D
:1023B00018BF002070474FF0A04070470003005046
:1023C000034A430900F01F00D35C1844C0B27047B1
:1023D0007453000070B50546FFF7F2FF0C4C08304F
:1023E0000E4634F81030DA0508D5C3F3432304EB66
:1023F000C302284654F8333052689847A3682BB17B
:10240000E26831462846BDE87040184770BD00BFFD
:102410005000002008B5FFF7D3FF034B083033F816
:102420001000400B08BD00BF5000002008B5FFF7AA
:10243000C7FF034B083033F81000C0F3400008BD5D
:102440005000002008B5FFF7BBFF034B083033F8FE
:102450001000C0F3401008BD50000020034611F0EA
:10246000010010B5CCB20DD1A207C4F3400012D5C3
:10247000094AD2F820055860C2F82005003818BF74
:10248000012008E04FF0A041D1F820251A60C1F8E2
:102490002025002AE8D010BD0003005010B5FFF73A
:1024A0008FFF124A083032F81030D9051CD5C3F31B
:1024B000432123F4F85322F8103002F10E040020D7
:1024C00034F8023F13F4807F03D0C3F343239942CF
:1024D0000AD001303028F3D1002342F831300448CB
:1024E000BDE81040FFF72ABE10BD00BF500000201D
:1024F000C8000020F0B50546002004460126074626
:102500008C420BD1114BD3F87C2132B10022C3F89D
:102510007C21D3F87C3140F00040F0BDE3B29B0059
:1025200003F580729B0806FA03F31D420BD002F1FB
:10253000804202F5C042D2F800C0BCF1000F02D0C8
:102540001760126818430134DAE700BF00600040EA
:10255000F7B506460846FFF733FF194F00F10805A7
:102560000C4637F81530DB0727D5304602F043FA22
:102570002046FFF767FF40B12046FFF74BFF316869
:1025800000F5A270002341F820302046FFF786FFB7
:10259000002301A827F815300194FFF701FF019BE4
:1025A00000EB8300074BD0F80027134043F00203F1
:1025B000C0F80037044803B0F0BD0448FBE700BF93
:1025C00050000020F0F8FCFF0000AD0B0400AD0B44
:1025D0002DE9FF41164680460846FFF7F1FE0D46FD
:1025E0003168044609B32846FFF720FF18B1284692
:1025F000FFF728FF10BB0023CDE900338DF80E3024
:102600008DF80F300DF10F020B4628460DF10E012B
:1026100002F099F9474A04F1080132F8113023F029
:10262000020343F0010322F81130736863B32846B4
:102630001F785968FFF7FAFE10B1D1B13E4826E085
:102640003C4A04F1080032F8103023F02003DB0488
:10265000DB0C22F8103061B1032FEFD871684968A4
:1026600091F800C0D8F80010A7B90CF5A27C41F889
:102670002C70304A04F1080132F8113023F01C03A9
:1026800043EA870322F81130B3684BBB2B4804B0F0
:10269000BDE8F08101EB8C0143EA4C33D1F810E541
:1026A0002EF0030EC1F810E5D8F8001001EB8C0EE7
:1026B00043F02003DEF8101522F8103021F44F31DA
:1026C00021F44071CEF810152902DEF8108501F4CE
:1026D0007C5141EA074141EA0801CEF81015C8E7EC
:1026E000D3E900672846FFF7D9FE002ECED0114D62
:1026F000D5E90023964203D19F4201D1002209E08F
:102700000F480DF10F01FFF7F5FC0C4B9842BED1BD
:102710009DF80F2045F8326005EBC20308345F6076
:1027200035F8143043EA422343F4807325F814301B
:10273000ACE700BF500000200400AD0B0000AD0B63
:10274000C80000202DE9F0430C4685B080462046A5
:1027500011461E46FFF734FE054629B32046FFF713
:1027600065FE18B92046FFF76DFE18BB314F05F125
:10277000080937F8193013F01C0F02D04B78012BE1
:1027800018D001238DF80F300023CDE900134A1C27
:102790008B1C20460DF10F0102F0D5F837F81930E7
:1027A00043F0030327F81930002E41D02046FFF7ED
:1027B0003DFE18B9204805B0BDE8F08396F800C08A
:1027C000D8F800301B4F0CF5A272002143F82210FC
:1027D00005F1080237F8121021F02001C904C90CD4
:1027E00027F8121075781DB3D8F80000B67800EB02
:1027F0008C002D04D0F8103523F4991323F4F853EA
:10280000C0F81035230203F47C5305F44035360537
:10281000D0F810E52B4306F4801641EA4C313343DF
:1028200041F0200143EA0E0327F81210C0F81035DA
:102830000248C0E7500000200400AD0B0000AD0BC3
:10284000014BC3E9021270475000002010B5084642
:102850001446FFF7F7FD50B10846FFF7B1FD054BF1
:10286000083033F8103004485B0B237010BD034868
:10287000FCE700BF500000200000AD0B0400AD0BD2
:1028800070B5164D95F8804006462CBB2146602257
:1028900005F1100002F0CFFA30682E6F21468E420B
:1028A0000ED10023C0F87C31D0F87C3140F30730E2
:1028B000FEF7EAF801230A4885F88030AB6770BD5F
:1028C000CBB29B0003F580727C2B08BF845001F1D2
:1028D000010108BF8358E2E70248F0E750000020FA
:1028E0000000AD0B0C00AD0B034B93F880000038DB
:1028F00018BF0120704700BF500000200148FFF7BB
:102900001DBC00BFC40000200148FFF7F3BB00BF9F
:10291000C400002073B503681646D3F80423002AC8
:10292000A8BF4FF000420546A8BFC3F804230846DD
:102930000C46FFF787FD00B30846FFF777FD014619
:10294000D8B92046FFF766FD04B2A40004F58072F2
:10295000034628688150296882582144D1F81025FF
:1029600042F00102C1F810252EB12968012202FAB5
:1029700003F3C1F8043302B070BD2046FFF720FD19
:102980000F4B083033F81030C3F38203042B12D0FE
:10299000052B12D001A80194FFF702FD019AD0F88F
:1029A0001035D34003F00103991C204602B0BDE866
:1029B000704002F011B80321F7E70221F5E700BFEC
:1029C000500000202DE9F04F694BDFF8A881D3F8C3
:1029D0000403D8F87010C0B289B040F00040FFF78F
:1029E00089FD051E2FDAC24600235AF87C1F06A86F
:1029F000CDE90633FFF732FD5F4B01930DF1180966
:102A00004FF0000B019A12F8013B0192DA0803F033
:102A100007031AF8022022FA03F3DA071CD409F19B
:102A20000409BBF1000F14D0D8F870104FF000402B
:102A3000FFF760FDD8F87C1006A8FFF70FFD00280F
:102A4000DAD125F000450124002D79D109B0BDE887
:102A5000F08F4FF0010BD5E7484B5B440293D9F858
:102A600000100029DBD0029B91FAA1F11C78B1FA89
:102A700081F141EA44142046FFF7A2FC0830059496
:102A800038F81070C808BB0819F80020039301F04B
:102A90000701012303FA01F122EA010209F80020EB
:102AA00005A8FFF77DFC059A039B02F5E072C7F3CA
:102AB000820650F822205B073746C2F3014224D534
:102AC00020463946D6B2FFF785FC05A80594FFF7E6
:102AD00067FC059B03F5E07350F82330C3F3014313
:102AE0009E4207D10021204601F076FF3146204664
:102AF00001F072FF05A80594FFF752FC059B012227
:102B000002FA03F3C0F82035A9E7022A0CD1032109
:102B1000204601F061FF06F00503012BEAD139469A
:102B20002046FFF757FCE5E702212046039201F01B
:102B300053FF032EF3D0039A032ADBD1022EEDE7D5
:102B400095FAA5F3B3FA83F304FA03F29B0003F1B9
:102B5000804303F5C04325EA0205D3F81005D3F8F6
:102B60001015C0F30520C1F30141FFF733FC6BE7FB
:102B70000060004050000020845300008453000097
:102B800001460148FFF7B6BAD400002008B5144B3F
:102B9000A8220021184602F04EF9032202611149D1
:102BA0004261114A8161C2614FF480620262002277
:102BB00082624262C26201660C49416610218166EE
:102BC00003460267C2664267BFF35F8F084911F888
:102BD000010D98540132102AF9D1BFF35F8F08BD5F
:102BE0002809002086530000EB0B0020DB0B00209F
:102BF0009F53000038B5EFF31185202383F312882B
:102C0000BFF36F8F064B9C6801F03CFF85F3118882
:102C1000BFF36F8F2046BDE83840FDF7B9BE00BF57
:102C2000D009002038B5094B53F82040013053F843
:102C30002050A54200D838BD636823B1204601F07A
:102C400024FF0834F5E723689847FAE7BC510000F1
:102C500070B52A4B2A4C2B4D012286B003201A70E6
:102C6000FFF7E0FFFDF79EFB0420FFF7DBFF2646A2
:102C7000AE4204F1300410D300F04AFC204C224E46
:102C8000AC4226D300F058FC01F051FB1F4A137BE5
:102C900023F00103137306B070BD54F80C3C059388
:102CA00054F8103C049354F8143C039354F8183C23
:102CB000029354F81C3C019354F8203C009354E9CF
:102CC0000A2354E90C0100F013FA54F8303C5E6515
:102CD000CDE7D4E90A23B3F1FF3F08BFB2F1FF3FCC
:102CE00005D052EA0301206803D101F053FF3034CC
:102CF000C6E73146183000F0D3FDF8E7EB0F0020AF
:102D00008450000084500000A14C000038020020D4
:102D100008B50348034A0021121A01F0CEFE08BD8F
:102D200098010020F00F002070B5002386B001222A
:102D3000CDE90423134E144D01930F22CDE9023245
:102D40001249142303FB005506EBC01604464FF44A
:102D5000C07000FB04110E4B00954FF4A07230467A
:102D600000F0C6F9737B0B4AEE6023F00403737323
:102D70004FF4046304FB033313442C746B6006B0FC
:102D800070BD00BFB8010020D0090020401800200D
:102D9000554B000000100020BFB50020FFF742FF98
:102DA0002C4B83F308882C4D2C4E6B692C4F43F42D
:102DB00000736B610024E02385F82230EC772C76D9
:102DC0006C76AC7685F820406B6A43F4E0236B6246
:102DD00085F82340FDF75CFDFDF7FAFE4FF0FF3369
:102DE000AB62EB62FDF7BAFFFDF716FF1D4BB36058
:102DF00040F201129A81C3E91844DC6601F02EFE0C
:102E00000120FFF70FFF0220174DFFF70BFF00F027
:102E1000B3FB164B75610593012315490094CDE969
:102E200003434FF480623B46CDE90144284600F05D
:102E30005FF96A7B064622F0040228466A7301F0B5
:102E4000E5FE2046FFF770FF3A4631462846FDF77B
:102E50009DFE00BF4018002000ED00E0D0090020DA
:102E6000512C0000B802002038020020A0530000BE
:102E7000C019002038B5064C064D0020AC4200D3E6
:102E800038BD204601F01DFE0028F9DB1C34F5E7B3
:102E9000480100204801002073B50C46EFF3118172
:102EA000202585F31288BFF36F8FC5685DB125605B
:102EB0002B68C360836901338361002081F311882B
:102EC000BFF36F8F11E052EA030603D125606FF064
:102ED0000B00F3E7CDE900230246083000F064FA66
:102EE00018B9034B9B685B69236002B070BD00BFDB
:102EF000D00900202DE9F341044617461E46EFF3A2
:102F00001188202383F31288BFF36F8FC368334A7D
:102F10007BB180689168884219D057EA060318D1BE
:102F200088F31188BFF36F8F6FF00F0002B0BDE818
:102F3000F081916891F90E1021610133E36093688B
:102F4000A36088F31188BFF36F8F0020EEE721693B
:102F5000F2E791F90E1090F90E309942A8BF194688
:102F60006FF07E029142B8BF11468B422DDD01F019
:102F7000FCFD0546CDE9007619482246414600F0A1
:102F800013FA0028E1D0EFF31186202383F312888F
:102F9000BFF36F8FA068D0B1236821699C420AD02B
:102FA0004BB193F90E309942A8BF19466FF07E03DA
:102FB0009942B8BF194601F0D8FD40B108483146E2
:102FC00000F062FA6FF00A00B0E70025D2E7002DAA
:102FD000F4D186F31188BFF36F8FF3E7D009002097
:102FE000EC0F002038B58368044663B3194A926831
:102FF00093422BD1C368012B03D9013BC36000204E
:1030000038BDEFF31185202383F31288BFF36F8F50
:103010000169806801F0A9FD204601F045FEA0602D
:1030200058B190F90E2022610022826701F0EEFD76
:103030000948294600F028FAE1E7E06085F31188A5
:10304000BFF36F8FDBE76FF01500D9E74FF0FF306C
:10305000D6E700BFD0090020EC0F002038B50446A9
:10306000EFF31185202383F31288BFF36F8F01F0F4
:103070001BFE48B10022826701F0C8FD29460848BE
:10308000BDE8384000F000BAD4E902329A4218BFD5
:103090000133A36085F31188BFF36F8F38BD00BF84
:1030A000EC0F002013B5EFF31181202484F3128874
:1030B000BFF36F8F846844B1013C846081F3118851
:1030C000BFF36F8F002002B010BD52EA030406D197
:1030D00081F31188BFF36F8F6FF00F00F3E7CDE935
:1030E00000230246014800F05FF9ECE7EC0F0020F6
:1030F0002DE9F043073285B022F007020E461F4645
:103100001099017300F158037F32C0E91633044669
:10311000002322F03F020421836041733F2A0F986D
:10312000A073C4E90633E37306F14009A2F1400835
:1031300005D883F31188BFF36F8F084602DFB518F7
:1031400029462046FDF72CFA07300E9B20F0070099
:10315000A066C4E9189802930D9B01932D1A0C9B4D
:1031600000932A463B4631462046FDF7DDFC00230E
:103170006365044B9B6803B1DB6EE366284605B0CC
:10318000BDE8F083D009002038B50D4D2B4653F82B
:10319000184F9C4200D004B9EC68AB6838B95A7B30
:1031A000D20604D1A26912B9DA897F2A05D89C42D5
:1031B00002D0204600F0BCFA23466B6138BD00BF48
:1031C000D009002008B590F90D20437B002A014664
:1031D00004DA03F07F03437301F0DEFC044B9868CC
:1031E000431A58425841BDE80840FFF7CDBF00BF21
:1031F000D009002070B490F90D30427B002B29DB00
:10320000D30627D183692BBB134962F07F02427337
:103210000A4652F8184F944218BF2346CC6923B986
:10322000C0E900242060C8610CE090F90E5093F9C9
:103230000E60B5420AD0AE4208DD5A68C0E90032DD
:103240001060586070BC0020FFF79EBF9C42E7D022
:103250001B68E4E770BC7047D00900202DE9F041FD
:10326000002A427B0E460CBF102108211142044661
:103270000FD141EA0203D20918D1437308291BD0A8
:103280000120FFF781FFBFF35F8F637B23F06003B3
:103290006373264B9B68A34241D1EFF30583002B58
:1032A0003DD13046BDE8F041FDF788BB03F07F0318
:1032B000437301F071FCE1E7A36813B1204601F00C
:1032C00073FC04F1180001F02CFD04F158074FF0D5
:1032D0000008A56DBD4200D0A5B9144DAB689C4255
:1032E000CED1EFF30583002BCAD00120FFF74CFFAE
:1032F0000F4BAB6040F201129A810022C3E9182201
:10330000DA66C0E7284601F04FFC05F1180001F02D
:1033100008FDC5F878802846FFF76CFFD9E786F3EB
:103320001188BFF36F8FBDE8F08100BFD009002086
:10333000B802002070B590F90D20437B002A0146A9
:1033400004DA03F07F03437301F026FC4B7B154A3C
:1033500063F07F0310464B7350F8183FD4698342E3
:1033600008BF002323B9C1E900042160D1610CE04A
:1033700091F90E5093F90E60B5420ED0AE420CDDBD
:103380005868C1E90030016059609068431A58429A
:10339000BDE870405841FFF7F7BE9C42E3D01B6880
:1033A000E0E700BFD0090020F8B5124B0C461146EB
:1033B000114A98681060DDE90676EFF31182202249
:1033C00082F31288BFF36F8F9D68284601F0F6FBE9
:1033D000B6F1FF3F08BFB7F1FF3F06D007493A46B5
:1033E000334605F1180000F05BFA2046BDE8F840CE
:1033F000FDF7E4BAD0090020F0090020A14C00003C
:10340000F8B50446EFF31186202383F31288BFF347
:103410006F8F437BDA0649B219D18569BDB903F0D4
:103420007F03437301F0B8FB437B164A817363F05B
:103430007F034373134653F8180F984218BF05468D
:10344000D0695DB9C4E900300460D46111E0A173B2
:10345000002086F31188BFF36F8FF8BD95F90E70C9
:10346000B9420BD08F4209DD6B68C4E900531C6080
:103470006C600120FFF788FE0120EAE7A842E1D056
:103480002D68DEE7D009002049B9EFF3058030B997
:10349000054B5A699B689A4201D0FDF78FBA81F3B8
:1034A0001188BFF36F8F7047D009002010B5EFF37C
:1034B0001184202282F31288BFF36F8F427B510761
:1034C00004D484F31188BFF36F8F10BD22F004027F
:1034D0004273FFF78FFE21460248BDE81040FFF718
:1034E000D3BF00BFEC0F0020034648B9EFF30582BD
:1034F00032B9064A51699268914201D0FDF75EBA2D
:1035000083F31188BFF36F8F704700BFD00900208D
:10351000EFF31181202383F31288BFF36F8F054BE4
:103520009A68D37B013BD37381F31188BFF36F8F0C
:10353000704700BFD009002038B5EFF31185202473
:1035400084F31288BFF36F8F0A4B9A68D37B0133E1
:10355000D3730020FFF718FE85F31188BFF36F8F38
:10356000EFF3118084F31288BFF36F8FBDE838400A
:10357000FFF7BABFD0090020024B03F11802C3E9DC
:1035800006227047D0090020F8B5EFF311852023FB
:1035900083F31288BFF36F8F19498868437B03F068
:1035A0007F03437301F0F8FA8B685A7B084662F098
:1035B0007F025A7350F8182FCC69824208BF00224C
:1035C00022B9C3E900042360CB610CE093F90E60DB
:1035D00092F90E70BE420ED0B7420CDD5168C3E9BD
:1035E00000210B6053600120FFF7CEFD2846BDE8A7
:1035F000F840FDF7E3B9A242E3D01268E0E700BF6C
:10360000D009002050EA01032DE9F04105460E469D
:1036100003D1FFF7B9FF00202BE0831C71F1FF33CA
:1036200029DB01F093FB2C18EFF31188202383F39F
:103630001288BFF36F8F124F124BB8681860FFF7F4
:10364000C1FDB86810492A463346183000F028F901
:10365000BA68537B43F0100353734046FDF7AEF94D
:1036600001F074FB201A63EB0303012873F10003DC
:10367000D1DBBDE8F0816FF00104241AD4E700BF6C
:10368000D0090020F0090020A14C0000B1F1FF3F5B
:1036900008BFB0F1FF3F08B506D10A4B986801F0AA
:1036A000C4FA4FF0FF3008BDFFF7ACFF4FF47A715A
:1036B00047F6FF730022C0FB0132D80B40EA4240BC
:1036C000F1E700BFD0090020014B9868704700BFA8
:1036D000D0090020044BC01A044BC0105843044BBF
:1036E00001221A54704700BF38030020ABAAAAAACF
:1036F000EC0F0020C3897F2B12D80A4B1B6863B1E3
:10370000094B90F90E201B689A4209DB437BDB06CC
:1037100006D1064BC31A18BF012303F001007047FE
:103720000023FAE7F8090020F4090020B80100207E
:1037300070B50E4B0E4C1E7C06EB460304EBC30427
:103740000546204601F0EDFA0A4B002228469A551C
:10375000FFF7D0FF48B1084B08491A68013A2046E4
:10376000D317BDE8704000F09BB870BDD0090020B1
:1037700038030020EC0F0020F8090020D5360000A7
:1037800038B5EFF31185202383F31288BFF36F8FD1
:10379000104B114A9C681068A04206D1FFF7C8FF81
:1037A00085F31188BFF36F8F38BD00211B7C11603A
:1037B0000A4AD35C002BF3D02046FFF79BFF00287A
:1037C000EED0637BDB0602D12046FFF7B3FD204637
:1037D000E4E700BFD0090020F0090020EC0F002032
:1037E00008B50648064A0749121A01F068F9BDE80B
:1037F0000840054A0549064801F061B9000000206B
:1038000098010020B453000000000000B4530000F1
:1038100000000020034B1B680BB9FEF769BB0020BA
:10382000704700BFFC09002030B570B10B4B5B68DE
:1038300098420AD0036843B1D3E90421D0E9044592
:10384000121941EB0501C3E90421D0E900321360EC
:103850005A600023C0E9003330BD00BFD80000200B
:1038600010B50E4B1C689C4204D1FFF7D3FF6FF0DC
:10387000004010BDFFF7CEFF002CF8D0D4E9043291
:103880001B1A62EBE072B3F1004F72F10001EEDA45
:10389000002AACBF18460020EBE700BFD80000208C
:1038A000B3F1FF3F08BFB2F1FF3FF8B504461D4634
:1038B00016465ED08160EFF31187202383F31288D0
:1038C000BFF36F8F013275F1FF3324DA2E49D1E94E
:1038D00000206FF001039B1A4FF0FF3262EB0000F3
:1038E0009E1B60EB0500012E70F1000301DA01263A
:1038F0000020C4E90460254ED6F800C07568B445C0
:1039000008BF4FF0000CBCF1000F0DD1C4E90065F9
:103910002C6074601CE0FFF77DFF013645F1000567
:10392000361845EBE070E4E7DCE90420D4E9043123
:10393000934271EB000E1DDAD21ADCF8043060EB12
:103940000100CCE90420C4E900C31C60CCF80440A9
:103950003368B34209D09C4207D10D4B1C6824B98F
:10396000FFF77EFF2146FEF795FA87F31188BFF334
:103970006F8FF8BD9B1A61EB0001AC45C4E90431BF
:10398000C4D0DCF800C0BEE750030020D8000020FF
:10399000FC0900202DE9F84FEFF3118C202383F36D
:1039A0001288BFF36F8FDFF8B0A0DFF8B0902C4F14
:1039B000C9F80000DAF800000024504508BF0020D4
:1039C0000025D7E90021D9F80030E04678B3D0E9E6
:1039D000046C4FEAE37EB3427EEB0C0B05DAF61A79
:1039E0006CEB0E04C0E9046421E0B21841EBE6710F
:1039F000C0E90445C7E90021FFF716FF88F31188E5
:103A0000BFF36F8F83689847EFF31188202383F308
:103A10001288BFF36F8FD9F80030DAF800009B1BD3
:103A20005045C446C9F80030CBD1D7E900219A18D7
:103A300041EBE3730024C7E90023C9F80040FFF716
:103A40000FFF2146FEF726FA88F31188BFF36F8F28
:103A5000BDE8F84FFFF794BED8000020FC09002015
:103A60005003002010B5EFF31184202383F3128854
:103A7000BFF36F8FFFF7CEFE054A0346D2E9000180
:103A8000181841EBE37184F31188BFF36F8F10BDF9
:103A90005003002010B50A4C23681BB1012323609A
:103AA000002010BD00F0EAF80028F7D00138062801
:103AB00003D8044B53F8200010BD034810BD00BFCD
:103AC000000A0020D4510000FE8FFFFFBFF34F8F8C
:103AD0000549064BCA6802F4E0621343CB60BFF3AA
:103AE0004F8F00BFFDE700BF00ED00E00400FA05C6
:103AF00010B4094B09490A4C4FF0FE32C3F80024B8
:103B00004968C3F80424C3F80824C3F80C2400232C
:103B1000C4F8003510BC084700B00250E000002097
:103B200000A00250D0E90012014BC3E90012704717
:103B3000E000002010B5044650B1636813F0685FE0
:103B400005D0064A934202D000232360626010BD74
:103B5000034B04485B689847EFE700BF2C5F5CA904
:103B6000E0000020F0510000C8B143680D4A9342C4
:103B700013D013F0685F0ED0012350E8002F1946D0
:103B800040E8001C9CF0000FF7D1012AF5D0BFF3EC
:103B90005F8F0020704704487047044870476FF4F7
:103BA000E04070472C5F5CA9E98FFFFFEA8FFFFFC1
:103BB00080B14368094A93420AD013F0685F05D088
:103BC000BFF35F8F002303601846704704487047B7
:103BD000044870476FF4E040704700BF2C5F5CA959
:103BE000E98FFFFFEA8FFFFF10B5044620B1044BB9
:103BF00063600022226010BD0248FFF779FFF6E7FC
:103C00003A00003A1852000070B5D0E90023174C72
:103C1000174D6360D0E90230C4E902302260486881
:103C2000D1F800C0134BC3E900C0D5F81801D1F892
:103C300008C0C3F808C010F0685FD1F80CC009696B
:103C4000C3F80CC0196110D00B49C5F8BC11002392
:103C5000C5E9453105F58A70C5F8B8319047236844
:103C600005F5DC70BDE87040184770BDFC00002011
:103C7000180A0020E80000202C5F5CA938B500F08D
:103C80002FF820B1032400F063F8204638BD00F07F
:103C900031F898B900F0ACF898B90F4DD5F828393B
:103CA0001B0EF02B08D1D5F8242A0C4B9A420AD0CF
:103CB000072400F017F8E6E70624FAE70424204674
:103CC00038BD0024F5E7012000F092F804460028F2
:103CD000F7D1C5F80C0AD8E700B002500000E02088
:103CE0000020704700207047014BC3F8040A70475A
:103CF00000B0025010B5114800F048F800B110BDF6
:103D00000F4800F043F80028F9D10E4C204600F08F
:103D10003DF80028F3D10C4B0C481C6000F036F83D
:103D200001460028EBD100F02DF8044608B12046EA
:103D300010BD00F03FF82046FAE700BF3C0100202C
:103D400038010020340100202C0100203001002027
:103D500008B5084800F024F8074800F021F80748A3
:103D600000F01EF8064800F01BF8BDE8084000F01F
:103D70000BB800BF3C0100203801002034010020B6
:103D80003001002000207047704700BF08B5034B8A
:103D900002681B6810689847002008BDFC000020DE
:103DA00008B5034B02685B6810689847002008BD9F
:103DB000FC00002070B5094C094D2069AB6898479C
:103DC00018B1084B08485B689847084AEB682069B7
:103DD00000211160BDE87040184700BFE8000020D6
:103DE000FC000020E00000203C520000140A0020EB
:103DF000F8B51A4D1A4E0446B26828699047E8B9DA
:103E0000184F3B684CB1A3B1012B19D0013B3B606B
:103E10002869F36898470020F8BD43B9124A012188
:103E2000C2F800151149D1F81029002AFBD101333D
:103E30003B60F368286998470020F8BD0C48F8BD3E
:103E40000A4AD2F81039002BFBD1074A6FF07E40A6
:103E5000C2F80035FFF748FF3B68D7E7E8000020CD
:103E6000FC000020140A002000A0025000B0025004
:103E7000E98FFFFF2DE9F04F8DB0436802938378FF
:103E800015469A07804640F10D8100240E78002ED9
:103E900000F00A81252E0BD04B1C03930134029BAA
:103EA0004146304698470028C0F2F6800399EDE776
:103EB0004E788B1C252E0393F0D00027B946BB46C5
:103EC000BBF11F0F38D8A6F12003102B0AD8DFE86A
:103ED00003F02A0909300909092109090928092DCE
:103EE00009091F00A6F13003092B33D92A2E37D137
:103EF0001BF0400F55F8043B40F08280002BA7BF19
:103F00004BF0200B9946C3F100094BF0280B01E060
:103F10004BF0010B039B13F8016B0393002ECFD1E1
:103F200030E04BF0020B4BF0040BF3E74BF0080BC7
:103F3000F0E74BF0100BEDE7BBF17F0F19D8A6F1BE
:103F40003003092BD2D81BF0400F03D00A2101FB0C
:103F50000737DFE70A2101FB09394BF0200BD9E7CE
:103F60002E2E06D11BF0400F40F09E804BF0400BF0
:103F7000D0E76C2E31D02BD8682E36D06A2E3CD0AC
:103F80004C2E3AD0002F46F02003B8BF2BF0400251
:103F9000A3F16501BCBF1FFA82FB0027022901D9EA
:103FA000612B2FD1073525F00705DFF8ACA20835C6
:103FB00007271BF0080F66D00AEB070B56465E4535
:103FC00063D1A4EB0A0A06EB0A02A9EB07096FE129
:103FD000742E9FD07A2E9DD0D4E71BF0800F18BF8F
:103FE0004BF4007B4BF0800B94E71BF4807F18BFF1
:103FF0004BF4007B4BF4807B8CE74BF4207B89E710
:104000001F4687E7A6F16301122900F2F080DFE87E
:1040100011F013004F00EE00EE00EE00EE004F0036
:10402000EE00EE00EE00EE00EE00FE00E900EE0015
:10403000EE001B00EE00AF0055F8043B8DF8183081
:1040400001270DF1180AB4E755F804AB834BBAF118
:10405000000F08BF9A461BF0400F14BF39464FF0BF
:10406000FF31504600F076FE0746A2E7029B41462C
:104070002020984700280FDB013EB742F6D34C447E
:10408000A41BB14698E74E46F7E716F8010B029BD2
:1040900041469847002892DA98F8023043F004032A
:1040A00088F802304FF0FF3420460DB0BDE8F08FA5
:1040B0001BF0800F34D01BF4007F2CD0073525F087
:1040C0000705AA4669685AF8080B2BF01005002965
:1040D000ADB237DA404261EB410145F480650DF144
:1040E000180B0A235A4600F041FEA0EB0B03019384
:1040F0006B0662D5019B25F001019F4289B240F316
:10410000A180002E00F0998015F0100240F09C80F4
:10411000BB460D4623E0AA465AF8040BC117D4E764
:10412000AA461BF4807F5AF8041B01D10846F5E724
:104130001BF4007F15BF48B208B241F3C01141F330
:10414000C031C2E750EA0103C9D11BF0400FC6D00D
:10415000002FC4D12BF0110295B2BB46019740F25B
:10416000064115EA01021CBF0BF1010B00222CE0F5
:104170002BF010021FFA82FB0A231BF0800C49D09F
:104180001BF400711DBF073525F00705AA46AA4696
:104190001ABF5AF8080B69685AF8040B50EA01056F
:1041A00045D12BF016051BF0400FADB242D0002FC9
:1041B00040D12BF0170295B2019715F0100248D0AC
:1041C000019B002E42D103F1010B29075AD4EB07C2
:1041D00006D5D9456FDD0199A9EB0B035F18CB46D6
:1041E0005B4649E04BF0100B10237826C5E7782B8F
:1041F00004D1C6F1780343F01003BEE7029B4146A9
:10420000252098470028FFF647AF023447E60823E9
:104210000026B2E7AA461BF480715AF8040BBDD001
:104220001BF400711ABFC0B2614680B2B6E72BF032
:10423000060295B20DF1180B54E725F01105ADB249
:10424000BB468CE70D46B8E73B460D4603F1020B33
:10425000BBE7DDF804B082E7AC530000A5530000D3
:10426000CDE904324146029B202098470028FFF602
:1042700013AF049B059A01339945F1DCA4EB0B01C4
:10428000CC189B460AB3029B414630209847002831
:10429000FFF602AF8EB901342744019B391B9942C6
:1042A00024DC1D465DBB019AA9EB0B09224455464F
:1042B0001446914435E0019F92E70234414630466E
:1042C000029B98470028E7DAE6E640F206410D42F5
:1042D000E2D015F0020F14BF2B20202015F4806FC0
:1042E00004F10104414618BF2D20E9E7029B414635
:1042F00030209847002804F10104CEDACCE606AB62
:10430000013D4146585D029B98470028CADAC3E642
:10431000029B414620209847002804F10104FFF643
:10432000BBAEA9EB0403002BF2DCBFE57047002015
:10433000704700EBC100408840087047F8B503465D
:10434000FFF7F7FFB0FA80F0C0F11F0003EB800C1D
:10435000CA00DCF81060171D0C4606328DB256B943
:10436000012101FA00F0D9680143D960CCF810406E
:10437000DD539D52F8BDF1000431585AD85303EB78
:10438000C0009E52C5805D52F4E7043A2DE9F04129
:10439000CC1D114424F0070421F007010E1BF7087F
:1043A000B7FA87F2C2F12405AD004FF000080735D7
:1043B000C2F12002ED0804604146A760C4F80C80F9
:1043C000920004F1100000F036FD6B0043F0010391
:1043D000638004EBC5027B1B5900A4F80080518068
:1043E000A21924F83550A2F80280A35304EBC703A6
:1043F00029465A8842F001025A802046BDE8F04121
:10440000FFF79CBF002070470FB407B504A951F80F
:10441000040B0191FBF77AFE03B05DF804EB04B0E6
:104420007047038B13F0070305D10368002B0CBF03
:10443000002003207047022B05D1408BB0FA80F09A
:10444000400980007047012B05D10368002B0CBF89
:104450000020052070470020704710B50C4600B1C1
:1044600011B96FF0150010BD081D00F093F8002879
:10447000F9D1A368032BF6D9F3E72DE9F0410D46F6
:1044800007461946281D90461E4600F094F804463B
:1044900038B13346424629463846A446BDE8F04185
:1044A0006047BDE8F08110B4EFF31182202484F35B
:1044B0001288BFF36F8F416110BC0121FBF75EBE14
:1044C00038B50C46054658B151B10B6843B14B683D
:1044D00033B11C22002100F0AEFC2C61002038BD5D
:1044E0006FF01500FBE770B505460E46FFF7B5FF08
:1044F000041E14DBEFF31182202383F31288BFF331
:104500006F8F6B8B2C8B4FF6FF718B4204F007047F
:1045100007D182F31188BFF36F8F6FF00A04204632
:1045200070BD022C0CD101336B8382F31188BFF371
:104530006F8F0023224631462846FFF79EFFEEE7A5
:10454000062C14D8DFE804F004131313041A040033
:10455000002333606B683BB9C5E90066ACB9022142
:104560002846FBF70BFEDAE71E606E60F6E782F383
:104570001188BFF36F8F6FF00404D0E782F31188C6
:10458000BFF36F8F6FF08504C9E782F31188BFF323
:104590006F8FC4E7034658B1426802F00302012A54
:1045A00003D0032A04D1026812B10020986070473A
:1045B0006FF0150070474268816002F00302032A21
:1045C0004FF0000203460CBF006810465A60704767
:1045D0007047FEE7012801D1EFF30583FEF70ABB20
:1045E00001460068FFF7F6BF08B5FBF7D5FFBDE849
:1045F0000840FBF7F5BF00210120FFF7EBBF61B6D4
:1046000062B680F31188BFF36F8F704772B60023D4
:1046100083F31188BFF36F8FBFF34F8F30BF62B644
:10462000BFF36F8F704772B6002383F31188BFF317
:104630006F8FBFF34F8F20BF80F31188BFF36F8F51
:1046400062B67047202809D9B0F1004F08D8013868
:10465000B0FA80F0C0F11F0040007047082070479A
:104660003E20704708B5FCF72DFC002008BD03690B
:10467000C9B20C2201FB0233186C00F0070070472E
:1046800070B5C9B20369EFF31185202484F3128851
:10469000BFF36F8F0C2606FB0134246C14F0C004AA
:1046A00008D0A24206D085F31188BFF36F8F4FF078
:1046B000FF3070BD06FB013301221A6485F31188B7
:1046C000BFF36F8F436803EBC1035B68984700201B
:1046D000EFE78022FFF7D4BFF8B5069F0469C9B29F
:1046E000EFF31186202585F31288BFF36F8F0C2519
:1046F00005FB0144256C05F0070CBCF1010F0CD142
:10470000276486F31188BFF36F8FC4E90E234368D3
:1047100053F8313098470020F8BD05F0C005AF428E
:1047200086F31188BFF36F8F0CBF6FF077004FF0E7
:10473000FF30F1E713B580240094FFF7CDFF02B0FE
:1047400010BD10B40069CBB21C2403FB040000218F
:1047500010BC10470020FDF79BBD002000F0F1B811
:104760001046FEF77BBC43685B68D3F810350B60DE
:104770000020704743685B6802EA010021EA0201F9
:10478000C3F80805C3F80C150020704743685B6840
:104790000020C3F80815704743685B680020C3F821
:1047A0000C15704743685A68D2F8043521EA0300B3
:1047B0000B40C2F80805C2F80C350020704710B550
:1047C00003695868F8B1884219D19C680868586034
:1047D000A14200D19860002008602AB15A680A609E
:1047E0009A68596002B99960002010E0814206D1B0
:1047F0000868206098688142EDD19C60EBE7044630
:1048000000680028F2D1002AE8D16FF0150010BD31
:1048100030B543681360057A446804EBC504A342CD
:1048200002D36FF0010030BD5C798C4201D00833B7
:10483000F0E70020F7E743681B68D3F88004C3F86B
:1048400080047047436802691B68D3F8100150B1B7
:104850005269002012780A70C3F81001D3F81021B1
:1048600001221A6070474FF0FF307047026803461C
:10487000D2F8580140B95B689B0706D4D2F82001F2
:10488000003818BF01207047012070474268136844
:10489000D3F80413C90517D5D3F82011A1B1EFF34C
:1048A0001181202080F31288BFF36F8FD3F820018D
:1048B00030B10020C3F82001D3F820010120D860D6
:1048C00081F31188BFF36F8F5268D20614D5EFF3CE
:1048D0001182202181F31288BFF36F8FD3F8581112
:1048E00011B10021C3F800154FF48001C3F808137B
:1048F00082F31188BFF36F8F704700F150039B0064
:104900009BB203F1804303F5883300221A601B68D1
:104910007047FFF7BFB808B5FBF752FDFBF726FE5F
:10492000BDE80840FFF7B6B8004700F093B8C000F4
:1049300000F1804000F5F830C0F81015C0F81425DB
:104940007047FDF721BCF7B5019001A8DDE90847E4
:1049500016461D46FDF724FD019BB6F1000C18BF5D
:104960004FF0010C00EB83000B1E18BF0123002D3C
:1049700043EA4C0314BF4FF00C0C4FF0000C002C1A
:1049800043EA0C0314BF4FF4E06C4FF0000C002F0F
:1049900043EA0C03D0F8002714BF4FF4403C4FF01B
:1049A000000C43EA0C0322EA030301B109780EB1BB
:1049B0003678760019430DB12D78AD0031430CB136
:1049C0002478240229430FB13F783F040C433C4331
:1049D000C0F8004703B0F0BD1FB50DF10F03019300
:1049E00000238DF80F1000931A461946FFF7ABFF0E
:1049F00005B05DF804FB38B5054608460C46FDF7E2
:104A000021FDB0B10846FDF711FD90B90846FDF74C
:104A100001FD2A6801238340C2F808332A6803B2E3
:104A200002EB8303D3F8102522F00302C3F810250C
:104A300038BD20460021BDE83840FFF7CDBFFDF767
:104A400087BDFFF7D8BFFEF7A1B808B5FFF7FBFF9A
:104A5000002008BD08B1FCF77DBA7047704740B12F
:104A6000C368587810F001001EBF1878B0FA80F0C3
:104A700040097047EFF31183202383F31288BFF3BB
:104A80006F8FFEE708B5FFF7F5FF10B5D0E90034EA
:104A900033B90020E268537843F00103537010BD2E
:104AA000204698470028F4D00028B8BF4042E36869
:104AB000FF28A8BFFF201870ECE700F0BCB900F099
:104AC000ACB982684369134313F003030CD1C3608C
:104AD0000169994201D800207047C168116041699D
:104AE000C26001330A44F3E76FF01500704710B558
:104AF000C0E904320023816083610446FFF7E1FFCF
:104B00000028A8BFC4E9004410BDF8B504460D460E
:104B1000EFF31186202383F31288BFF36F8FC768EA
:104B20006FB900F0C1F850B18767456100F06EF8C9
:104B3000314604F10800BDE8F840FEF7A5BCE36883
:104B40002B60A369E560013BA36186F31188BFF385
:104B50006F8FF8BD08B52024EFF3118384F312881A
:104B6000BFF36F8FFFF752FDF6E790F90E308B42DF
:104B700001D0FEF745BC0020704703460020C3E982
:104B80000200C3E900337047EFF30580003818BF17
:104B900001207047FEF78ABCD0E9003213605A60EA
:104BA0000023C0E90033704708B5FFF7F5FF437BEA
:104BB00023F0020343730023836008BD38B5044625
:104BC0000D46FEF7FFFA637B43F002036373E5B122
:104BD000A5602B689D4209D16B68C4E900531C6035
:104BE0006C6012E06A689A42F6D01B68002BF3D022
:104BF00094F90E2093F90E108A42F3D09142F1DD20
:104C00005A68C4E9003214605C6038BD10B5EFF337
:104C10001184202383F31288BFF36F8FFEF7EAFA23
:104C200084F31188BFF36F8F10BD10B504461830A0
:104C300000F077F8EFF31181202383F31288BFF39C
:104C40006F8F627B12F0100204D081F31188BFF3E2
:104C50006F8F10BD2046BDE81040FEF7FFBA38B593
:104C60000446EFF31185202383F31288BFF36F8F7F
:104C7000437B13F0280F0BD183680BB1FFF794FF30
:104C8000637B51B903F0FB0363732046FEF7B2FA6E
:104C900085F31188BFF36F8F38BD03F0EB03F3E7A3
:104CA00001211838FFF7DBBF38B5EFF3118520235A
:104CB00083F31288BFF36F8F0468A0420DD034B124
:104CC0002046FFF771FF04F1180000F02AF885F381
:104CD0001188BFF36F8F204638BD0024F7E7EFF34C
:104CE0001181202282F31288BFF36F8F027BD207DB
:104CF0000CD581F31188BFF36F8F002383F31188E4
:104D0000BFF36F8F0423184602DF7047437B1B07F6
:104D100004D581F31188BFF36F8F70470122FEF72E
:104D20009DBA10B5EFF31184202282F31288BFF3ED
:104D30006F8F03683BB1FEF777FD002084F3118885
:104D4000BFF36F8F10BD6FF01500F7E708B5FEF7E2
:104D500089FE08BD10B5024601448A42134603D0BD
:104D60001C780132002CF8D1181A10BDF0B5C3F12F
:104D700037070446FFB203F01F031046082BE6B2C4
:104D800033D0102B3ED06508A40844EA817445EA6C
:104D9000C1752D194FEA910242EB5102290941EAEE
:104DA00002716D1842EB1212290A41EA02616D1874
:104DB00042EB1222290C41EA02416D1842EB1242E9
:104DC000AD1842F10002EC0844EA4274D10804EB49
:104DD0008402A6EB4205EDB2092D0CD90134A5F1F0
:104DE0000A0541F10001EDB212E0E40844EA417421
:104DF00006F00705C908303554EA010200F8015BE6
:104E0000BCD1F0BD240944EA017406F00F0509097C
:104E1000092D84BFED19EDB2EDE70A44914200F18E
:104E2000FF3300D1704710B511F8014B03F8014F63
:104E30009142F9D110BD02440346934200D170471C
:104E400003F8011BF9E70000014800687047000003
:044E500074080020C2
:104E5400110F00000000000011100000B44E00000B
:104E64004B4A000000000000752E00000000000006
:104E7400C9130000DC4E0000C9130000C84E000036
:104E84001349000000000000AD170000F04E0000C0
:104E94007912000000000000311D00000000000035
:104EA400ED0E0000000000001749000000000000A3
:104EB40027530000FC5000000C510000400100206A
:104EC400A808002036530000285100005851000063
:104ED40042010020FC08002044530000405100001F
:104EE4005851000044010020080900205A530000D2
:104EF4007C510000B0510000460100203400002025
:104F0400392300002949000000000000F745000093
:104F1400F04E00008D48000000000000F74500003E
:104F240000000000F745000000000000F745000005
:104F3400C52900002949000000000000F7450000D1
:104F440000000000F745000000000000F7450000E5
:104F540000000000F745000000000000F7450000D5
:104F640000000000F745000000000000F7450000C5
:104F740000000000F745000000000000F7450000B5
:104F840000000000F745000000000000C11D000003
:104F940000000000F745000000000000F745000095
:104FA40000000000F745000000000000F745000085
:104FB40000000000F745000000000000F745000075
:104FC40000000000F745000000000000F745000065
:104FD40000000000F745000000000000F745000055
:104FE40000000000F745000000000000F745000045
:104FF40000000000F745000000000000F745000035
:1050040000000000F745000000000000F745000024
:1050140000000000F745000000000000F745000014
:1050240000000000F745000000000000F745000004
:1050340000000000F745000000000000F7450000F4
:1050440000000000F745000000000000F7450000E4
:1050540000000000F745000000000000F7450000D4
:1050640000000000F745000000000000F7450000C4
:1050740000000000F745000000000000F7450000B4
:0C508400FFFFFFFFFFFFFFFFFFFFFFFF2C
:105090000338FDD87047000000000000D345000031
:1050A0001C000020140000200C0000200000000064
:1050B00004000020D9040000CD03000021040000FA
:1050C00081040000000000200000000000000B062A
:1050D00002000000D8500000000000001253000041
:1050E00026000207000000201A53000022000B11C6
:1050F000990F0000690F000000000000E910000097
:10510000DD0F0000554700005B47000069100000FC
:10511000D346000035470000000000006F46000045
:105120000000000000000000FFFF0000000300502E
:1051300000000000010000000060004000000000CE
:10514000BCF801FF0000005000000000000000005B
:1051500000600040000000005D1400006747000090
:10516000754700008D47000099470000A5470000E3
:10517000C9120000BF4700000000000000200040EE
:1051800002000000000000008C51000000200040E0
:105190009851000001000000A05100000400000030
:1051A00006000000050004000806020007060600CD
:1051B00045480000051A000037480000544E000022
:1051C000544E00009C4E0000A44E0000B44E00005F
:1051D000B44E0000FF8FFFFFFF8FFFFFFE8FFFFF2A
:1051E000FE8FFFFFFD8FFFFFFC8FFFFFFC8FFFFF98
:1051F0006D757465785F667265652063616C6C655A
:10520000642077697468204E554C4C20706172613F
:105210006D6574657200000043616E277420696ECD
:10522000697469616C697A65206D757465782C2084
:10523000776173204E554C4C0D0A0000436F756C1E
:1052400064206E6F74206C6F636B20706F77657273
:105250002073617665206D75746578002A2A2A208E
:10526000426F6F74696E67206E524620436F6E6E98
:105270006563742053444B2076322E372E302D3503
:105280006362383535373063613433202A2A2A0A7D
:10529000002A2A2A205573696E67205A657068793A
:1052A00072204F532076332E362E39392D3130303F
:1052B000626566633730633734202A2A2A0A006D14
:1052C000757465785F696E69742063616C6C656480
:1052D0002077697468204E554C4C20706172616D66
:1052E0006574657200436F756C64206E6F74206125
:1052F0006C6C6F63617465206D7574657820626590
:10530000666F726520696E697469616C697A696E2D
:105310006700464C4153485F30005352414D5F3067
:1053200000000001000000636C6F636B403430309C
:105330003030303030006770696F40353030303099
:10534000333030006770696F403530303030303086
:1053500030000001020304050607756172744034D1
:1053600030303032303030000000000000010100E9
:10537000000000000020303030303030303030302D
:105380003030303000015465726D696E616C000020
:105390000000000000545452205245474745530036
:1053A0006D61696E00286E756C6C29002A666C6FE1
:0453B00061742A00FA
:1053B400054400005C0100203A0000007001002058
:1053C4003A000000480100203A0000008401002057
:1053D4003A000000000000006546000000000000E4
:1053E400000000000000000000C2010000010300F2
:1053F40000000000DA0B0020D90B002000000000A0
:105404000000000000000000000000000000000098
:105414000000000000000000000000000000000088
:105424000000000000000000000000000000000078
:105434000000000000000000000000000000000068
:105444000000000000000000000000000000000058
:105454000000000000000000000000000000000048
:105464000000000000000000000000000000000038
:1054740008000000FF00000000000000030000001E
:1054840000000000FFFF0F00D8000020D80000201B
:1054940000000000CD3A0000240100201C0100207F
:1054A40014010020000000000C010020E93B000072
:1054B400353B0000693B0000B13B0000040A0020BA
:1054C4003A00003A080A00203A00003A0C0A002088
:1054D4003A00003A100A00203A00003A3401002051
:1054E400F8000020F0000020EC000020E80000207C
:0854F4000000000000000000B0
:1054FC0048010020480100200000000000000000CE
:10550C000E0000005C0100205C0100200000000087
:10551C00000000000E00000070010020700100204F
:10552C0000000000000000000E00000084010020BC
:10553C008401002000000000000000000E000000AC
:04554C0015E015E071
:04000003000008B53C
:00000001FF
